:020000040800F2
:10000000783100204501000881450008B13A000818
:1000100075440008950900081967000800000000F1
:100020000000000000000000000000003F4A00083F
:10003000D30A00080000000005490008314B000801
:100040005F0100085F0100085F0100085F01000810
:100050005F0100085F0100085F0100085F01000800
:100060005F0100085F0100085F0100085F010008F0
:10007000790A0008850A0008910A00089D0A00080C
:100080005F0100085F0100085F0100085F010008D0
:100090008D6500085F0100085F0100085F0100082E
:1000A0005F010008814C00085F0100085F01000843
:1000B0008D4C0008994C00085F0100085F010008A2
:1000C0005F0100085F0100085F0100085F01000890
:1000D0005F010008BD5300085F010008D553000808
:1000E0005F0100085F0100085F0100085F01000870
:1000F0005F0100085F0100085F0100085F01000860
:100100005F0100085F0100085F0100085F0100084F
:100110005F0100085F010008A54C00085F010008AE
:100120005F0100085F0100085F0100085F0100082F
:10013000DFF80CD000F0B4FB004800475D6D00080C
:10014000783100200648804706480047FEE7FEE772
:10015000FEE7FEE7FEE7FEE7FEE7FEE7FEE7FEE777
:10016000B54B000831010008202A04DB203A21FAAF
:1001700002F00021704721FA02F3D040C2F12002C0
:10018000914008431946704740EA01039B0703D09A
:1001900009E008C9121F08C0042AFAD203E011F8C6
:1001A000013B00F8013B521EF9D27047D2B201E088
:1001B00000F8012B491EFBD270470022F6E710B56C
:1001C00013460A4604461946FFF7F0FF204610BDC5
:1001D000F0B480EA0102D40F4200B2EB410F02D228
:1001E0000246084611464A0042D0C30DDDB2C1F3B3
:1001F000C752AD1A202D35DAC1F3160141F40002C1
:1002000004B15242C5F1200602FA06F12A41104417
:10021000B3EBD05F23D0C4B1012DA0EBC35009DCF8
:10022000F0BC4FF0004202EAC352DBB200F500001E
:1002300000F0AABA400000F1807000EBC350A0F1BA
:10024000807040EAD170490009E0490841EAC07174
:10025000A0EBC35000F50000400800EBC350F0BC19
:1002600000F089BA6142012202EB4101001BF6E76E
:10027000F0BC704781F00041AAE780F00040A7E79A
:1002800080EA010210B502F00043400022D04A008B
:100290001FD0010E01EB1261C0F35600C2F35602EB
:1002A00040F4000042F40002A0FB022000047F3969
:1002B000140400D0401C50EA124001D44000491EF2
:1002C000C2B20C0604EBD010401C4008802A02D0B9
:1002D00003E0002010BD20F00100002900DA00201A
:1002E000184310BD30B480EA010202F0004530F03E
:1002F000004221F0004013D090B1C30DD40DC2F3E1
:100300001601C0F31600E41A41F4000140F40002A3
:100310007D34914201D3641C00E04900002C02DAD4
:1003200030BC002070474FF400000023914201D3FD
:10033000891A034340084FEA4101F7D151B1914274
:1003400002D14FF0004105E002D24FF0010101E07F
:100350006FF0010103EBC450284430BC00F00BBA2D
:100360002DE9FE4F804681EA0300C00F0C46009045
:1003700021F0004123F00045B8EB0200A94105D26D
:100380004046214690461C460B46024623F000405C
:10039000104347D0270DC7F30A00C3F30A51029058
:1003A000401A019040286BDAC3F3130040F4801B1D
:1003B0000098924620B10023D2EB030A63EB0B0BAB
:1003C00001985946C0F14002504600F0B3F9064684
:1003D0000D4650465946019A00F0BBF910EB080053
:1003E0006141002487EA115284EAE7731A4340D03E
:1003F000009A62B3019A012A4FEA075215DC001BEA
:1004000061EB02014FF0004202EA0752CDE90042DF
:10041000001C41F5801132462B4600F0F2F903B082
:10042000BDE8F08F40462146F9E7001B61EB020171
:10043000001C41F5801300185B412018A2F500173D
:1004400047EB030140EAD570B6196D4111E06D0824
:100450004FEA360645EAC0754FEA0752001B61EBCA
:100460000201001C41F5801149084FEA30000019D3
:10047000514132462B4603B0BDE8F04F00F0B2B90F
:100480000098012240000023D0EB020263EBE073EE
:10049000009821464FEAE074B8EB000061EB0401DC
:1004A000E9E783F000435BE781F0004158E72DE97D
:1004B000FE4F81EA030404F0004421F0004100945F
:1004C0004FF0000B23F0004350EA01045ED052EAE3
:1004D00003045BD0C3F30A54C1F30A552C44A4F2BD
:1004E000F3340194A0FB0254C1F3130141F48011D1
:1004F000C3F3130343F4801301FB024400FB034ED8
:10050000840A970A44EA815447EA8357A4FB0768A0
:1005100002958D0A05FB07854FEA932C04FB0C54CA
:100520002705029D4FEA065847EA1637B5EB08053E
:100530006EEB070C870E920E47EA811742EA831290
:10054000A7FB0201B6EB0B0164EB00042B0D43EAA1
:100550000C335E1844EB1C50DA465146E7FB0201AF
:10056000C5F313044FEA0B3343EA14534FEA043242
:10057000019C43EA0603A4F10C040294009CCDE91B
:1005800000B400F03EF903B0BDE8F08F0020014652
:10059000F9E72DE9F04D81EA030404F0004B21F066
:1005A000004514464FF0000A23F0004150EA0502CE
:1005B00020D054EA01021DD0C5F30A570246C5F304
:1005C0001303C1F31300C1F30A5640F4801543F43A
:1005D0008013A7EB0608101BD64608F2FD3873EB14
:1005E000050002D308F1010801E092185B41B8F15F
:1005F000000F03DA00200146BDE8F08D00204FF423
:100600008011064684460EE0171B73EB050705D3E1
:10061000121B63EB050306434CEA010C49084FEA41
:10062000300092185B4150EA0107EDD152EA030015
:1006300012D082EA040083EA0501084305D0101BAA
:10064000AB4106D20122002306E000224FF0004316
:1006500002E06FF0010253101AEB06004CEB085158
:1006600010EB0A0041EB0B01BDE8F04D00F0BAB809
:10067000C10F80EAE0700844CA079623002100F009
:1006800083B80EB5C10F80EAE0700844CA070021A4
:1006900040F233438DE80E000A460B4600F0B1F8F5
:1006A00003B000BD00F0004220F00040C10DC0F3D7
:1006B000160040F400007F2901DA002070479629D7
:1006C00003DCC1F19601C84001E096398840002A58
:1006D000F4D04042704700F0004230F000400AD0B1
:1006E000C10D01F56071C0F3160042EA0151C20864
:1006F00040071143704700200146704701F0004356
:1007000030B421F0004150EA010206D00A0DA2F5F2
:100710006072C1F31301002A02DC30BC0020704774
:10072000440F44EAC104C100E01830BC00EBC250E1
:1007300000F021B8202A04DB203A00FA02F1002060
:1007400070479140C2F1200320FA03F3194390400F
:100750007047202A06DBCB17203A41FA02F043EA21
:10076000E07306E041FA02F3D040C2F1200291406A
:100770000843194670470029A8BF7047401C49002C
:1007800008BF20F00100704710B4B0FA80FC00FAF6
:100790000CF050EA010404BF10BC704749B1CCF121
:1007A000200421FA04F411FA0CF118BF01212143AD
:1007B0000843A3EB0C01CB1D4FEA00614FEA102068
:1007C00042BF002010BC704700EBC350104400290A
:1007D000A4BF10BC7047401C490008BF20F00100B6
:1007E00010BC704710B5141E73F1000408DA401CE9
:1007F00041F1000192185B411A4301D120F0010040
:1008000010BD2DE9F04D92469B4611B1B1FA81F22F
:1008100002E0B0FA80F220329046FFF78BFF0446E8
:100820000F4640EA0A0041EA0B0153465A46084384
:1008300013D0114653EA010019D0C8F140025046C6
:10084000FFF792FC05460E46504659464246FFF7D2
:1008500071FF084305D0012004E020463946BDE879
:10086000F08D0020054346EAE0762C4337430A9892
:100870006305E40AA0EB08000022FD0A44EA47549D
:100880000A3002D500200146E9E701051019694147
:10089000DDE9084500196941BDE8F04DA2E7000017
:1008A000064C074D06E0E06840F0010394E80700BD
:1008B00098471034AC42F6D3FFF73EFCA86F00080F
:1008C000C86F000870B521F0004303430CD0C1F39A
:1008D0000A550024D5EB040564EB0403D617AD1AC2
:1008E000B34102DB0020014670BD201841EB0251EC
:1008F00070BD70B58C1810F8015B15F0070301D1BD
:1009000010F8013B2A1106D110F8012B03E010F872
:10091000016B01F8016B5B1EF9D12B0705D4002395
:10092000521E0DD401F8013BFAE710F8013BCB1A37
:10093000921C03E013F8015B01F8015B521EF9D52C
:10094000A142D8D3002070BD70B50446006881680C
:10095000C943C9071CD1816821F00101816000F001
:1009600059FE05460FE000BF00F054FE401B022870
:1009700009D9A06A40F01000A062E06A40F00100CE
:10098000E062012070BD20688068C043C007EBD0E2
:10099000002070BDFEE70020704700207047000077
:1009A00010B500220449054804F0F0FD044903484D
:1009B00004F0E6FD002010BD501D0020C40E0020F4
:1009C0006819002010B50146034804F0D9FD02481B
:1009D00004F0BAFD002010BDC40E002070B505461D
:1009E0004FF6FF7000224AF201040EE0AB5C584063
:1009F0000023C60702D084EA500000E040085B1CD8
:100A0000DBB2082BF5D3521CD2B28A42EED370BDB2
:100A10002DE9F0418046134E0846FFF75CFE124A6E
:100A2000124BFFF744FD124D07460C46A86CFFF72A
:100A300052FE3A462346FFF793FCB2070D4BFFF7F1
:100A400036FD07460C4631464046FFF719FCFFF7D6
:100A500042FE3A462346FFF783FCFFF74FFEA864A9
:100A6000BDE8F0810AD7233C7B14AE47E17A843F8E
:100A7000540A002014AEEF3F014800F099BA00007C
:100A8000800E0020014800F093BA00003C0E0020C8
:100A9000014800F08DBA0000F80D0020014800F078
:100AA00087BA0000B40D002030B590F84050012402
:100AB000AC40C56B6C60046863604368102B0368CE
:100AC00003D099600068C26030BD9A600068C16060
:100AD00030BD70472DE9F0411D4C00251D4F25709C
:100AE00065604FF4807631463846A56000F084FD9D
:100AF00048B9642000F0FAFB3146384600F07CFD2E
:100B000008B901202070207800F026F8207800280D
:100B10001BD0012819D102F0CDFF0021084603F0B7
:100B20009BF800BF03F028F8322000F0DFFB0A2D0D
:100B300009D100250221284603F08EF803F01CF8A5
:100B4000322000F0D3FB6D1CECE7BDE8F081000023
:100B5000C0010020000C01402DE9F0411A4C4FF477
:100B600080514FF48048F0B14D0001284FF4C87611
:100B70004FF000020F4620461CD000F046FD012237
:100B80004146204600F041FD01222946204600F062
:100B90003CFD304600F0AAFB012239462046BDE864
:100BA000F04100F032BD0122204600F02EFD00226F
:100BB0004146F3E700F029FD01224146204600F0BE
:100BC00024FD0022E1E70000000C01400648806897
:100BD00000F00E010548006800F0280041EA80009E
:100BE000034908707047000000100140080C0140E4
:100BF000C40A0020F8B50024009490F8242025466B
:100C0000012A12D0012280F824204A681F23072AD3
:100C10000DD20668776B521E02EB820293409F430F
:100C20000B6893401F43776319E00220F8BD066804
:100C30000D2A0AD2376BD21F02EB820293409F43E8
:100C40000B6893401F43376309E0F76A0D3A02EBE4
:100C5000820293409F430B6893401F43F7620A68E8
:100C6000072306680A2A0AD3F7680A3A02EB420207
:100C700093409F438B6893401F43F76008E03769B8
:100C800002EB420293409F438B6893401F433761BE
:100C90000A68102A01D0112A20D1124B02689A4208
:100CA00017D193681B0219D4936843F4000393602F
:100CB0000968102912D10C490C4A0968B1FBF2F1FC
:100CC00001EB8101490000E0491E00910029FBD1A0
:100CD00004E0816A41F020018162012480F82450FF
:100CE0002046F8BD002401400C00002040420F00C7
:100CF0002DE9F04104004FF000057FD0A06A0026E6
:100D000028B9E66284F82460204600F081F8204685
:100D1000FFF71AFEA16AC90600D420B1A06A40F00C
:100D20001000A0626AE0A16A21F4885141F002013A
:100D3000A162334923688B42E16904D1B1F5402FA8
:100D400001D14FF40021E7684FF4807C41EA47026B
:100D500061680A43A168614508D0012906D00021D5
:100D6000D4F814E0BEF1010F02D00AE06146F7E7C3
:100D7000C7B1A76A47F02007A762E76A47F00107F3
:100D8000E7625F6827F469470F435F6023689968EB
:100D90001C4F394011439960A16861450BD001296E
:100DA00009D00CE0DFF860E0A7690EEB47370F438E
:100DB00047F40061E5E7218A0D05A5F58015216856
:100DC000CB6A23F470032B43CB62216889680F4BF5
:100DD0001940914208D1E662A16A21F0020141F076
:100DE0000101A162BDE8F081A06A20F0020040F09C
:100DF0001000A062E06A40F00100E0620120F1E72B
:100E0000003C0140FDF7E1FF00E0FFFFFE0E1FFF89
:100E100000B500680B4985B0884210D10A48816945
:100E200041F4007181618069694600F400700490AA
:100E30002020009003200190044800F0E9FA05B05A
:100E400000BD0000002401400010024000100140DD
:100E500001680A6822F00E020A6001680A6822F03E
:100E600001020A6090F84020C36B012101FA02F2EE
:100E70005A6080F82110002180F820100846704741
:100E80002DE9F05F90F821100024022903D00421FD
:100E90008163012485E001680A6822F00E020A607D
:100EA00001680A6822F001020A603F4E3E4FB21507
:100EB000DFF8F4C0DFF8F090DFF8ECA0DFF8E8B07E
:100EC000DFF8E4E00168783F13011502ACF1640C2F
:100ED000A9F15009AAF13C0AABF1280BAEF1140EAE
:100EE0004FF48018B14227D9B9420ED0614512D0D3
:100EF00049451DD0514518D0594518D0714501D1EB
:100F0000424615E0294EB14201D1012210E0274EA0
:100F10001436B14201D110220AE0244E2836B142E3
:100F200006D0224A3C32914201D11A4600E02A46BC
:100F30001E49091F0A602BE0B94213D0614517D042
:100F4000494522D051451DD059451DD0714501D18B
:100F500042461AE0B14202D14FF0807215E0134EC2
:100F6000B14201D1012210E0104E1436B14201D13C
:100F700010220AE00D4E2836B14206D00B4A3C3210
:100F8000914201D11A4600E02A46074980394A6059
:100F9000012180F82110002180F82010416B01B15F
:100FA00088472046BDE8F09F8000024008040240C8
:100FB0002DE9F05FC16B0A6801680B68046C4FF0A3
:100FC000040808FA04F8844D844E854FDFF814C2F3
:100FD000DFF81492DFF814A2DFF814B2DFF814E29D
:100FE00018EA020F65D05FEA437862D50A68920674
:100FF00003D40A6822F004020A60DFF8F0814FF49B
:101000008062016808F1140813011402414524D9D3
:10101000A9420DD0B1420FD0B9421AD0614515D0C6
:10102000494515D0514501D1120312E0594501D16E
:1010300004220EE0714501D140220AE06D4D1435C5
:10104000A94206D06B4A2832914201D11A4600E0EB
:1010500022466749091F0A6029E0A94213D0B1421C
:1010600015D0B94220D061451BD049451BD0514510
:1010700002D14FF4800217E0414502D14FF0806267
:1010800012E0594501D104220EE0714501D1402200
:101090000AE0584D1435A94206D0564A28329142EA
:1010A00001D11A4600E022464B4908394A60C16A1C
:1010B00071E04FF0020808FA04F818EA020F70D045
:1010C0005FEA83786DD50A68920606D40A6822F032
:1010D0000A020A60012180F82110DFF810814FF424
:1010E0000072016808F1140813011402414524D963
:1010F000A9420DD0B1420FD0B9421AD0614515D0E6
:10110000494515D0514501D1120312E0594501D18D
:1011100002220EE0714501D120220AE0354D14353E
:10112000A94206D0334A2832914201D11A4600E042
:1011300022462F49091F0A6029E0A94213D0B14273
:1011400015D0B94220D061451BD049451BD051452F
:1011500002D14FF4001217E0414502D14FF0007266
:1011600012E0594501D102220EE0714501D1202241
:101170000AE0204D1435A94206D01E4A2832914279
:1011800001D11A4600E02246134908394A6000217D
:1011900080F82010816A00291CD0BDE8F05F084764
:1011A000FFE70825A540154214D01A0712D50A6892
:1011B00022F00E020A6090F84020C36B012101FA70
:1011C00002F25A60816380F82110002180F820101B
:1011D000016BE0E7BDE8F09F080002401C00024000
:1011E0003000024044000240580002406C000240BF
:1011F000080402401C04024030B560B11C4A036878
:101200001421934209D21B4A1A44B2FBF1F189001E
:10121000016419490AE0012030BD154A52421A44BE
:10122000B2FBF1F18900016411490839C16302215F
:1012300080F821101A6843F6F0718A43F0E901142E
:101240002143D0E902452C432143046921434469E9
:101250002143846921431143196000214162816265
:10126000C16201634163012242770177084630BDC4
:1012700008040240F8FFFDBF0000024070B50446BC
:1012800090F82000002501280CD0012084F82000CF
:1012900094F821600020012E06D084F82000022559
:1012A000284670BD022070BD022684F82160A0632C
:1012B0002068066826F0010606602046FFF7F4FB6A
:1012C000E06A00282068016802D041F00E0106E0C3
:1012D00021F0040101602068016841F00A01016009
:1012E0002068016841F001010160D9E770B504464A
:1012F00000F090F90546601C02D0044800780444D0
:1013000000F088F9401BA042FAD370BD0000002015
:101310002DE9F04300230F24DFF8D4C063E001225D
:101320009A400A405ED0FF2A01D8074601E000F14A
:1013300004074FEA830601D9A6F12006D7F80080FA
:1013400004FA06F54FF0040928EA050809FA06F937
:1013500048EA0908C7F80080C56825EA0205C560A3
:1013600023F003056544AF684FEA83764FEA1676AB
:1013700004FA06F909EA07081E4FB84201D100270E
:1013800019E01D4FB84201D1012714E01B4FB842AC
:1013900001D102270FE01A4FB84201D103270AE01A
:1013A000184FB84201D1042705E0174FB84201D1C8
:1013B000052700E00627B740474513D1AF6827EA65
:1013C0000907AF60114D2E6896432E602D1D2E68C3
:1013D00096432E602D1D2E6896432E602D1D2E687F
:1013E00096432E605B1C31FA03F298D1BDE8F0837E
:1013F0000000014000080140000C014000100140C5
:101400000014014000180140001C0140000401408C
:101410002DE9F84FDFF8B8A100220AF1040B1446B9
:1014200001274FF00F090BF1040E00BF0B6807FAFC
:1014300004F52B40AB4274D1DFF898C14E68A6EB9F
:101440000C0866452BD00DDC032E34D005DC36B3FA
:10145000012E19D0022E2FD11BE0112E16D0122EE4
:101460002AD119E0B8F5881F19D006DCB8F5803FFD
:1014700015D0B8F5801F1FD111E0B8F5001F0ED0B0
:10148000B8F5041F18D10AE0CA6815E0CA68121D31
:1014900012E0CA6808320FE0CA680C320CE08A68B1
:1014A0002AB1012A4FF0080203D0456104E004226A
:1014B00002E0056100E00022FF2B01D8064601E0B2
:1014C00000F104064FEA840501D9A5F12005D6F8FC
:1014D00000C009FA05F82CEA080C02FA05F54CEAF6
:1014E000050CC6F800C04D68ED006AD53A4DAE69EE
:1014F00046F00106AE61AD6924F0030605F0010572
:101500000095364D06EB050CDCF80850A6074FEAAF
:10151000167809FA08F6B543314EB04202D10026DA
:101520001AE04EE02F4EB04201D1012614E02E4EBB
:10153000B04201D102260FE02C4EB04201D1032669
:101540000AE02B4EB04201D1042605E0294EB042FC
:1015500001D1052600E0062606FA08F62E43CCF84F
:1015600008604D68DAF80060ED03554601D51E436A
:1015700000E09E432E604D68AD0305D5DBF80060AA
:101580001E43CBF8006004E0DBF800509D43CBF82D
:1015900000504D68DEF80060ED02754601D51E432F
:1015A00000E09E432E604D68AD0205D5084D0C3518
:1015B0002E681E432E6004E0054E0C3635689D43B0
:1015C0003560641C102CFFF431AFBDE8F88F0000CB
:1015D0000004014000001110001002400000014012
:1015E00000080140000C01400010014000140140BF
:1015F00000180140001C01408068084000D0012014
:101600007047C2684A40C26070470AB101617047C2
:101610000904FBE7014880687047000000000020D3
:1016200070B504001BD094F83D00002520B984F863
:101630003C50204600F094F8242084F83D002068B7
:10164000016821F00101016000F02CFD404A616851
:10165000914201D83F4900E03F49884201D2012030
:1016600070BD3E492368B0FBF1F159606368934255
:1016700006D94FF4967359434FF47A73B1FBF3F1E3
:101680002368491C19626168914210D84900401EC4
:10169000B0FBF1F2521CC2F30B02042A01D2042067
:1016A00022E0B0FBF1F0401CC0F30B001CE0A3688B
:1016B000CBB301EBC10202EB0116421EB2FBF6F204
:1016C000521C42F48042120536D06BB301EBC102CA
:1016D00002EB0111401EB0FBF1F0401CC0F30B0007
:1016E00040F4804040F400402168C861D4E907011B
:1016F000084321680860D4E9031008432168886022
:10170000D4E9050108432168C8602068016841F0F8
:10171000010101602564202084F83D00256384F8E0
:101720003E50002070BD00E008E001EB4106421E83
:10173000B2FBF6F2521CC6E70120D5E701EB4101EE
:10174000401EB0FBF1F0401CC0F30B00CAE70000E4
:10175000A086010080841E0000093D0040420F0069
:1017600000B500680C4985B0884212D1C0200090B5
:10177000122001900320039069460848FFF748FEB5
:101780000748C16941F40011C161C06900F400104B
:10179000049005B000BD000000540040000C014062
:1017A000001002400248816802781144816070474D
:1017B00000000020074810B5016841F010010160E9
:1017C000032000F0B7F8002000F006F800F03EF823
:1017D000002010BD0020024000B5014687B0002265
:1017E000192000F087F8192000F078F81348816973
:1017F00041F400618161806905A900F400600690F0
:10180000684600F029FC00F05DFC0D490D4AB0FB74
:10181000F1F10D48491E0260416040F2E7320021BB
:10182000C0E90321816001F07FF910B1012007B008
:1018300000BD054801F0D0F9F9E7000000100240B2
:1018400040420F00002C014038210020214808B5FB
:10185000816941F001018161816901F0010100911B
:10186000C16941F08051C161C06900F080500090B1
:10187000032000F05FF8002211466FF00B0000F02B
:1018800039F8002211466FF00A0000F033F8002208
:1018900011466FF0090000F02DF800221146501F8C
:1018A00000F028F800221146101F00F023F8002253
:1018B0001146901E00F01EF800221146501E00F046
:1018C00019F80548416821F0E06141F0007141607C
:1018D00008BD0000001002400000014000F01F029F
:1018E000012191404009800000F1E020C0F8001182
:1018F00070470000F0B40E4B1B680C46C3F3022384
:10190000C3F10705042D00D90425191D072901D2AB
:10191000002300E0DB1E012606FA05F1491E2140E6
:1019200099409E40761E16403143F0BC02F029BE1D
:101930000CED00E0064900F0070208684FF6FF03CF
:10194000184040EA0220034A104308607047000034
:101950000CED00E00000FA0510B50C0605D501F00D
:101960007F0100EB4110283003E000EB411000F54F
:101970000A7099B232B101228272C180190C0181C0
:10198000002010BD002282728180F9E7704700EBD1
:101990004112D0F85C04D26B03F0BEBF00EB4112E1
:1019A000D0F85C04D2F83C2204F00BB810B5044621
:1019B0000A460B0601F07F0004EB401101D52831E7
:1019C00001E001F50A710870D009487094F8280404
:1019D000012809D0012084F82804206804F0F2FBD3
:1019E000002084F8280410BD022010BD70B50A46FE
:1019F0000446090602F07F0003D504EB40112831AC
:101A000003E004EB421101F50A7100258D700870A6
:101A1000D009487094F82804012809D0012084F8DE
:101A20002804206804F07CFC84F82854002070BD51
:101A3000022070BD01F00F0100EB4110B0F844022C
:101A400080B2704770B504460D460E0601F07F0067
:101A500004EB401101D5283101E001F50A7108704D
:101A6000E80948700A61CB7094F82804012809D06D
:101A7000012084F82804206804F074FA002084F817
:101A8000280470BD022070BD70B50C4601F07F05C2
:101A900000EB4511C1E98F230022C1F8442281F8EF
:101AA000292281F8285201F50A716206006804F0C3
:101AB00091FC002070BD70B50D460446090605F086
:101AC0007F0003D504EB4011283103E004EB4511FE
:101AD00001F50A7101228A700870E809487094F8CB
:101AE0002804012807D084F82824206804F04DFC3D
:101AF000680602D006E0022070BD04F22C41206886
:101B000004F00CFC002084F8280470BD70B50C466D
:101B100001F07F0500EB4511C1E90F2300224A6463
:101B2000012281F8292001F8285F6206006804F08C
:101B300051FC002070BD10B50446006804F02CFD77
:101B4000000402D5204602F02CFD206804F024FD9C
:101B500040050CD5206830F8441F21F480610180D5
:101B6000204600F0EDF80021204600F0FEF8206845
:101B700004F012FD400405D5206830F8441F21F41C
:101B800080410180206804F007FD800405D52068AD
:101B900030F8441F21F400510180206804F0FCFC5F
:101BA000C00414D5206830F8401F21F004010180E2
:101BB000206830F8401F21F008010180204600F025
:101BC000CCF8206830F8441F21F48051018020684F
:101BD00004F0E2FC00051AD5206830F8401F41F0FF
:101BE00008010180206830F8441F21F40061018061
:101BF000206830F8401F41F004010180206804F0A3
:101C0000CBFCC043C00402D5204600F0E3F82068B6
:101C100004F0C2FC800508D5206830F8441F21F488
:101C200000710180204600F09CF8206804F0B4FCAC
:101C3000C00505D5206830F8441F21F4807101806B
:101C400010BD00002DE9F04186B004004FF0000502
:101C500004D094F82904002620B108E0012006B041
:101C6000BDE8F08184F82864204600F04BF803209A
:101C700084F82904206804F04AFB04F110011422BE
:101C800088466846FEF780FA94E80F0004F098FA58
:101C90000021206804F093FC5FF0010704EB45107D
:101CA00080F8297000F8285F8581C670066146615A
:101CB0006D1C86610F2DF1D35FF0000004EB401125
:101CC00081F8296281F82802888681F82B62C1F8A0
:101CD0003862C1F83C62401CC1F840620F28EDD365
:101CE000142241466846FEF74FFA94E80F0004F0CC
:101CF000FFFA84F8246084F82974206804F0F6FA66
:101D00000020ACE708B500680B49884212D10B48A7
:101D1000C16941F40001C161C069002200F4000002
:101D2000009011461420FFF7E5FDBDE8084014209F
:101D3000FFF7D4BD08BD0000005C00400010024069
:101D400010B504460121D0F85C0403F025FFD4F857
:101D50005C04BDE8104003F0EEBED0F85C0403F074
:101D600009BFD0F85C0403F00BBF10B5044690F82F
:101D7000280401280BD0012084F8280484F82410BA
:101D8000206804F01EFC002084F8280410BD022006
:101D900010BDD0F85C2400F22C41104603F00FBFB8
:101DA00010B5044690F82804012810D0012084F8CA
:101DB000280401462046FFF7E9FD206804F094FA64
:101DC000206804F0DCFB002084F8280410BD022009
:101DD00010BD000010B50446D0F85C0403F03CFFD1
:101DE000A069002804D00348016841F006010160A1
:101DF00010BD000010ED00E00548016841F002014F
:101E000001600448016841F00401016030BF70477F
:101E10000070004010ED00E02DE9F8430546007821
:101E2000354CC00754D0E0690026C00008D4E069F2
:101E300040F08050E061E069012600F080500090A1
:101E40002E480168C90512D40168804641F48071AA
:101E50000160FFF7DFFB074605E000BFFFF7DAFB95
:101E6000C01B642823D8D8F80000C005F6D5206A26
:101E700010F4407021D0A98801F4407181421CD037
:101E8000206A1F49012220F440700A6000220A6083
:101E90002062C00711D0FFF7BDFB074641F288382A
:101EA00008E000BFFFF7B6FBC11B414502D9032084
:101EB000BDE8F883206A8007F4D5206A696820F4B9
:101EC0004070084320621EB1E06920F08050E0615C
:101ED0002878800705D56068A96820F44040084349
:101EE00060602878C00605D56068696920F48000C4
:101EF000084360600020DBE70010024000700040F3
:101F0000400442422DE9F047DFF83C8105460E4689
:101F1000D8F8000000F00700B0420CD2D8F800104A
:101F200021F007013143C8F80010D8F8000000F094
:101F30000700B04263D12878444C800705D560681B
:101F4000A96820F0F000084360602878C00745D0F9
:101F50006868012816D02168022816D08907002950
:101F60004DDA616821F0030101436160FFF752FB24
:101F70006968074641F2883001290FD0022981465D
:101F800019D027E021688903E9E78901E7E700BF65
:101F9000FFF740FBC11B494501D918E08146606845
:101FA000C0F381000128F3D118E000BFFFF732FB36
:101FB000C11B49450BD86068C0F381000228F5D1E8
:101FC0000CE000BFFFF726FBC11B494502D90320E7
:101FD000BDE8F087606810F00C0FF3D1D8F800105E
:101FE000404601F00701B1420BD9016821F0070119
:101FF00031430160006800F00700B04201D00120C9
:10200000E6E72878400705D56068E96820F4E060D5
:10201000084360602878000706D56068296920F4C5
:10202000605040EAC100606000F05CF86168084AF6
:10203000C1F30311515CC840064908600020FFF756
:10204000CBFB0020C4E7000000200240001002404B
:10205000EC6E00080C0000200F2202600C4A53684E
:1020600003F003034360536803F0F0038360536895
:1020700003F4E063C36052684FF4E06303EAD20202
:1020800002610448006800F0070008607047000023
:102090000010024000200240014800687047000024
:1020A0000C0000200448054900684968044AC1F34F
:1020B0000221515CC84070470C0000200010024013
:1020C000FC6E00080448054900684968044AC1F3E9
:1020D000C221515CC84070470C0000200010024033
:1020E000FC6E000812A185B00FC98DE80F0014A086
:1020F000144A006804905168134801F00C03042B43
:1021000010D0082B0ED1C1F38343C9031DF803007F
:102110000AD5516804AAC1F34041515C0A4A5043B0
:10212000B0FBF1F005B0704708494843FAE70000FA
:1021300002030405060708090A0B0C0D0E0F101008
:10214000010200000010024000127A0000093D0068
:102150002DE9F84F04460078B94DC00748D06868AB
:10216000C0F38100012807D06868C0F3810002280D
:1021700009D16868C00306D52868800338D560682F
:1021800000286FD034E06068B0F5803F0BD010B10C
:10219000B0F5A02F11D0286820F48030286028687E
:1021A00020F4802002E0286840F4803028606068D5
:1021B00088B1FFF72FFA064609E0286840F480202E
:1021C0002860F0E7FFF726FA801B642875D8286896
:1021D0008003F7D50CE0FFF71DFA064605E000BFC7
:1021E000FFF718FA801B6428F0D828688003F7D41A
:1021F0002078944E80074FF001094FF000083BD53E
:10220000686810F00C0F07D06868C0F381000228DE
:1022100009D16868C00306D42868800714D52069EE
:1022200001281FD110E02069B0B1C6F80090FFF777
:10223000F1F9074605E000BFFFF7ECF9C01B0228E3
:10224000C4D828688007F7D52868616920F0F800AD
:1022500040EAC10028600FE0C6F80080FFF7DAF915
:10226000074606E0E9E000BFFFF7D4F9C01B0228EB
:1022700023D828688007F7D4207800072CD5724827
:10228000A169D9B1C0F80090FFF7C4F9074604E08E
:10229000FFF7C0F9C01B02280FD8686A8007F7D57E
:1022A0006A484FF4FA510068B0FBF1F0009000BFAB
:1022B0000098411E0091FAD20EE080E0C0F8008044
:1022C000FFF7A8F9074604E0FFF7A4F9C01B0228AE
:1022D00075D8686A8007F7D42078400760D5E86928
:1022E0000027C00008D4E86940F08050E861E86940
:1022F000012700F08050009055480168C90513D4AB
:102300000168834641F480710160FFF783F98246DA
:1023100006E000BFFFF77EF9A0EB0A0064284ED864
:10232000DBF80000C005F5D5E06801280AD008B147
:10233000052813D0286A20F001002862286A20F0BE
:10234000040002E0286A40F001002862E06841F2DF
:10235000883B98B1FFF75EF982460BE0286A40F0AF
:1023600004002862EEE700BFFFF754F9A0EB0A0172
:1023700059455AD8286A8007F6D50CE0FFF74AF984
:10238000824605E0FFF746F9A0EB0A0159454CD813
:10239000286A8007F6D41FB1E86920F08050E86110
:1023A000E06988B36968C1F38101022945D0022838
:1023B000C6F8608004D0FFF72DF9044638E034E019
:1023C000FFF728F9074604E0FFF724F9C01B0228AD
:1023D0002BD828688001F7D4206AB0F5803F05D15A
:1023E0006868A16820F4003008436860D4E90801F7
:1023F0000843696821F4741108436860C6F8609066
:10240000FFF708F9044606E015E000BFFFF702F900
:10241000001B022809D828688001F7D50BE000BF0F
:10242000FFF7F8F8001B022802D90320BDE8F88F57
:1024300028688001F4D40020F8E70120F6E70000C6
:102440000010024000004242800442420C00002082
:102450000070004070B5040005D00025A56294F816
:10246000510010B104E0012070BD204600F056F884
:10247000022084F851002068016821F040010160C9
:10248000D4E901010843D4E9031211430843616907
:102490000843218B01F400710843E1690843216A74
:1024A0000843A16A084321680860A069042101EA81
:1024B0001040616A0843216848602168E06A086149
:1024C0002068C16921F40061C1616565012084F85B
:1024D0005100002070BD00000B4A01680B4891427A
:1024E00006D1816921F480518161E021084808E02A
:1024F000084A914207D1C16921F40041C1612821F4
:102500000548FEF705BF704700300140001002404B
:1025100000080140003C0040000C014010B51B4C7D
:1025200003681B480221032286B0A34218D18369A5
:1025300043F4805383618069164C00F4805004900A
:10254000A020CDE90001039269462046FEF760FF16
:1025500040200021CDE9000102916946204610E0AB
:102560000D4CA3420FD1C36943F40043C361C0695A
:10257000039200F4004004902820CDE90001694650
:102580000648FEF745FF06B010BD000000300140D0
:102590000010024000080140003C0040000C0140D7
:1025A0002DE9F84F044640680026984617460D4628
:1025B0004FF00409B0F5827F01D1A06890B194F882
:1025C0005000012819D04FF0010B84F850B0FFF7EC
:1025D00021F8009094F851004FF0000A01280ED025
:1025E00002267FE084F8519013460A462046CDF833
:1025F000008000F031F9BDE8F88F0220FBE7002DE4
:102600006FD0002F6DD084F85190C4F854A0A5630A
:10261000A787E787C4F830A0A4F834A0A4F836A0B0
:10262000C4F840A0C4F844A0A0684FF40047B842E2
:1026300004D12068016821F48041016020680168AC
:10264000490603D4016841F040010160E068B8B177
:1026500033E020688168C90706D0007B05F8010BCC
:10266000E08F401EE0870BE0B8F1000F23D0B8F1F7
:10267000FF3F05D0FEF7CEFF0099411A41451AD21F
:10268000E08F0028E5D11BE020688168C90706D0EB
:10269000C06825F8020BE08F401EE0870DE0B8F11E
:1026A000000F08D0B8F1FF3F07D0FEF7B3FF009945
:1026B000411A414501D3032614E0E08F0028E3D1FD
:1026C0006068B0F5827F0AD1A068B84202D0B0F548
:1026D000806F04D12068016821F040010160606DC5
:1026E00000B1012684F851B084F850A0304682E74A
:1026F0002DE9F84F044690F85000002699461746F9
:102700000D4601280DD04FF0010B84F850B0FEF7B4
:1027100081FF804694F85100B246012804D0022679
:1027200094E00220BDE8F88F002D7BD0002F79D0F7
:10273000032084F85100C4F854A02563A786E786D7
:10274000C4F838A0A4F83CA0A4F83EA0C4F844A063
:10275000C4F840A0A068B0F5004F04D1206801681B
:1027600041F48041016020680168490603D4016892
:1027700041F040010160E068B0F5006F606804D08E
:1027800030B3E08E012823D03EE010B1E08E012866
:102790001AD135F8021B206805E020688168890796
:1027A00006D535F8021BC160E08E401EE0860BE0C6
:1027B000B9F1000F34D0B9F1FF3F05D0FEF72AFF81
:1027C000A0EB080149452BD2E08E0028E5D11EE0A0
:1027D000216815F8010B087306E0206881688907F5
:1027E00006D515F8011B0173E08E401EE0860BE054
:1027F000B9F1000F14D0B9F1FF3F05D0FEF70AFF81
:10280000A0EB080149450BD2E08E0028E5D14B46EC
:10281000012202212046CDF8008002F0C5F810B157
:10282000032613E011E042464946204602F0ACF888
:1028300018B101262020606508E0A06818B920685A
:10284000C16880680090606D00B1012684F851B0C5
:1028500084F850A0304665E72DE9F84F044690F81B
:10286000500000260A9F9A4693460D464FF00108F5
:1028700001280ED0012084F85000FEF7CBFE8146DF
:1028800094F85100616801280CD0B1F5827F07D11E
:1028900002E00220BDE8F88FA16809B9042801D040
:1028A0000226BDE055B1BBF1000F07D0BAF1000F11
:1028B00004D094F85100012802D004E00126AFE0D2
:1028C000052084F8510000206065C4F838B0A4F8F1
:1028D0003EA0A4F83CA02563A4F836A0A4F834A038
:1028E0002064606420680168490603D4016841F0EF
:1028F00040010160E068B0F5006F606804D0E8B3A3
:10290000E08E01283BD06AE010B1E08E01282ED184
:10291000216835F8020BC860E08E401EE08626E094
:10292000B8F1000F0DD0E08E58B12068816889079A
:1029300007D535F8021BC160E08E401EE0864FF0DF
:102940000008E08F58B120688168C90707D0C068C7
:102950002BF8020BE08F401EE0874FF00108781C37
:1029600005D0FEF757FEA0EB0900B84246D2E08E34
:102970000028D5D1E08F0028D2D136E0FFE72168CA
:1029800015F8010B0873E08E401EE08627E000BFBB
:10299000B8F1000F0DD0E08E58B12068816889072A
:1029A00007D515F8011B0173E08E401EE0864FF03D
:1029B0000008E08F58B120688168C90707D0C06857
:1029C0000BF8010BE08F401EE0874FF00108781CE8
:1029D00005D0FEF71FFEA0EB0900B8420ED2E08E34
:1029E0000028D5D1E08F0028D2D13B460122022118
:1029F0002046CDF8009001F0D7FF08B103260FE084
:102A00004A463946204601F0BFFF18B10126202072
:102A1000606505E0A06818B92068C168806800900A
:102A2000012084F85100002084F85000304631E73E
:102A30004FF0E0210428086903D020F00400086169
:102A4000704740F00400FAE7704710B5401EB0F13F
:102A5000807F01D3012010BD4FF0E02460610F2181
:102A6000601701F08EFD0020A0610720206100208A
:102A700010BD10B5FFF7E8FF10BD7047704710B5E7
:102A800090F83C20012A25D0012280F83C20CA6819
:102A90008C6822F4407222434C6822F48062224304
:102AA0000C6822F4006222430C6922F48052224313
:102AB0004C6922F4005222438C6922F48042224362
:102AC00022F40041026800232143516480F83C3025
:102AD000002010BD022010BD30B590F83C20012A26
:102AE00020D0012280F83C20022380F83D3003688A
:102AF0005C6824F070045C6003685C680D682C43BB
:102B00005C6003689C6824F080049C6003689C6897
:102B100049680C439C6080F83D20002180F83C10FF
:102B2000084630BD022030BD10B5040003D094F833
:102B30003D0010B107E0012010BD002084F83C00EA
:102B4000204600F00DF8022084F83D00211D206889
:102B500002F0AEF8012084F83D00002010BD000016
:102B600000B5194A0168194885B0914217D1C16969
:102B700041F00201C161C069694600F002000490A1
:102B8000032000900020019002901148FEF740FCC5
:102B9000002205211D20FEF7ADFE1D2010E00D4A8C
:102BA00091420FD1C16941F01001C161C069002299
:102BB00000F01000049011463620FEF79BFE3620F0
:102BC000FEF78CFE05B000BD00040040001002407E
:102BD000000C0140001000400168CA6842F0010288
:102BE000CA600068016841F001010160002070477F
:102BF0000168CA6822F00102CA600068016A41F2F5
:102C00001112114207D1016A9210114203D10168D9
:102C100021F0010101600020704770B5044690F872
:102C20003C00012817D0012584F83C50022084F88C
:102C30003D002068826822F0770222F47F428260A1
:102C40000868502837D00DDC202859D005DC88B31F
:102C5000102841D151E0022070BD302853D04028C7
:102C60003AD13FE060282ED070280BD0B0F5805FBD
:102C700003D0B0F5005F2FD110E02068816821F00B
:102C8000070115E0CB68D1E90121206802F061F865
:102C90002168886840F0770088601DE0CB68D1E942
:102CA0000121206802F055F82068816841F48041D4
:102CB000816011E01EE0CA684968206802F01EF9D0
:102CC0005021206806E0CA684968206802F05EF971
:102CD0006021206802F047F884F83D50002084F815
:102CE0003C0070BDCA684968206802F007F94021BD
:102CF0002068EFE700212068ECE710212068E9E771
:102D000020212068E6E730212068E3E72DE9F04143
:102D10000D46040003D094F83D0018B108E00120EE
:102D2000BDE8F081002084F83C00204600F03AF82D
:102D3000022084F83D002068816821F0070181604D
:102D4000211D206801F0B4FF226890689169166A1D
:102D50002B68AF69034340F20330814341EA072106
:102D6000A868EF6908434FF6FC418843E96840EAE8
:102D70000720014328692F6A000140EA0730084311
:102D800069686D6926F0AA0646EA0515294393602D
:102D90002268906120680162012084F83D000020D3
:102DA000BEE7000000B5006885B0B0F1804F19D1D2
:102DB0000D48C16941F00101C161C069694600F077
:102DC0000100049003200090002001900290074829
:102DD000FEF71EFB002205211C20FEF78BFD1C20A8
:102DE000FEF77CFD05B000BD001002400008014068
:102DF0002DE9F8436E4A016807460126002402F1D6
:102E00002000A0F11005B1F1804F25D0694B994207
:102E100020D1034697F81CC0B3F91030BCF1040F61
:102E200075D0BCF1080F15D18046002B70D0D0684A
:102E3000914600284FF00C0138466AD000F03EFB66
:102E40000146C8F83810C9F80C40AA684046012A63
:102E50007ED0EE60BDE8F883554B97F81CC0203358
:102E6000BCF1010FB3F90E3018D0BCF1020FF1D153
:102E70008046A3B35068914600284FF004013846BD
:102E80003ED000F01BFB0146C8F82810C9F80440EA
:102E90002A684046012A3DD06E60DBE781469BB13F
:102EA0001068904600284FF00001384610D000F01E
:102EB00005FB0246C9F82420C8F800406968484666
:102EC00001290DD02E60C5E74C62A9F80E60C1E75C
:102ED00000F0F4FAC9F81C00C8F80060BAE70BE08B
:102EE000816A0091036A0020D9F81C1001F0FAFDF4
:102EF000386844626C60ADE74C62A8F80E60A9E7E0
:102F000000F0DCFAC8F82000C9F80460A2E70DE080
:102F100037E03AE00091D0E908320020D8F81C10E0
:102F200001F0E0FD386844622C6093E7804643B3CB
:102F30009068914600284FF0080138460ED000F006
:102F4000BDFA0246C8F834204046C9F8084000E0FF
:102F500022E0E968012908D0AE607BE700F0AEFA14
:102F6000C8F82C00C9F8086074E7816B0091036B06
:102F70000120D8F82C1001F0B5FD38684462EC60EF
:102F800068E74C62A8F8106064E700F097FAC8F8A8
:102F90003000C9F80C605DE70091D0E90C320120E7
:102FA000D8F82C1001F09EFD38684462AC6051E7FF
:102FB000A40A0020000400402DE9F041044690F8E6
:102FC0003C000D4601283BD0012684F83C600220DD
:102FD00084F83D009AB3042A44D02068082A53D0CC
:102FE000D5E90027E968036A23F480530362D0F827
:102FF0001CC0036A2CF4407C4CEA07274FF6FF7C88
:1030000027F470470CEA01313943770323F4005366
:1030100007EA02321A43C16102622068C16921F4E1
:103020004061C1612068C169AA6841EA0221C161A9
:1030300084F83D60002084F83C00BDE8F08101E0A8
:103040000220FAE7D5E90012EB68206801F068FF7A
:103050002068816921F00C01816120688169AA687A
:1030600011430FE0D5E90012EB68206801F0A0FFE2
:103070002068816921F44061816120688169AA68C2
:1030800041EA02218161D3E7D5E9002C2F7B016A57
:1030900021F480710162C169036A21F0030141EAF0
:1030A0000C0121F0F00C39074FF420674CEA116154
:1030B00023F4206307EA02221A43C16102622068F6
:1030C000C16921F00C01C1612068C169AA6811437E
:1030D000ADE710B5040003D094F83D0010B107E04F
:1030E000012010BD002084F83C00204600F00CF8C0
:1030F000022084F83D00211D206801F0D9FD012047
:1031000084F83D00002010BD704770B5044600688B
:1031100001694FF00005C943890715D4C168C94347
:10312000890711D4E91E0161012020772068806998
:103130008007204602D0FFF75BFE04E000F0ACF809
:10314000204600F04FF9257720680169C9434907F7
:1031500017D4C168C943490713D46FF00401016152
:10316000022020772068806910F4407F204602D03A
:10317000FFF73EFE04E000F08FF8204600F032F941
:10318000257720680169C943090716D4C168C94376
:10319000090712D46FF0080101610420207720682C
:1031A000C0698007204602D0FFF722FE04E000F04D
:1031B00073F8204600F016F9257720680169C943A5
:1031C000C90617D4C168C943C90613D46FF01001EA
:1031D0000161082020772068C06910F4407F2046F4
:1031E00002D0FFF705FE04E000F056F8204600F09C
:1031F000F9F8257720680169C943C90708D1C16872
:10320000C943C90704D1891E0161204600F036F97F
:1032100020680169C943090609D4C168C943090680
:1032200005D46FF0800101612046FFF726FC20687D
:103230000169C943490609D4C168C943490605D48F
:103240006FF040010161204600F05AF920680169E1
:10325000C94389060BD4C168C943890607D46FF0F6
:10326000200101612046BDE87040FFF707BC70BD3A
:103270001FB500680649884209D14FF4407000909C
:1032800002200190039069460248FEF7C1F81FBD75
:103290000034014000100140704770B5044690F8BA
:1032A0003C000D4601280DD0012684F83C60022028
:1032B00084F83D0042B1042A18D0082A2AD00C2AEA
:1032C0004DD139E0022070BD206801F055FD206825
:1032D000816941F0080181612068816921F0040160
:1032E0008161206881692A69114311E0206801F039
:1032F00073FD2068816941F4006181612068816902
:1033000021F480618161206881692A6941EA022192
:10331000816124E0206801F095FD2068C16941F0D9
:103320000801C1612068C16921F00401C161206800
:10333000C1692A69114311E0206801F0B7FD2068D6
:10334000C16941F40061C1612068C16921F48061F3
:10335000C1612068C1692A6941EA0221C16184F81A
:103360003D60002084F83C0070BD10B5040003D01F
:1033700094F83D0010B107E0012010BD002084F852
:103380003C00204600F01AF8022084F83D00211D80
:10339000206801F08DFC012084F83D00002010BD64
:1033A00000680449884204D10348816921F400512E
:1033B00081617047003401400010024008B5006888
:1033C0000649884208D10648816941F4005181616B
:1033D000806900F40050009008BD000000340140F6
:1033E000001002407047000010B50446006801223A
:1033F00001F0A4FC08492068884202D007498842AD
:1034000003D1416C41F4004141642068016841F0FE
:1034100001010160002010BD002C0140003401407A
:1034200010B504460068002201F088FC114841F202
:10343000111221689310814202D00F48814209D1B4
:10344000086A104206D1086A184203D1486C20F479
:10345000004048642068016A114206D1016A19429D
:1034600003D1016821F001010160012084F83D00D1
:10347000002010BD002C01400034014000680C49C0
:10348000884201D1FEF78EB90A49884202D1002054
:1034900001F0B4BBB0F1804F06D00749884205D196
:1034A0005FF0010001F012BB0020FBE77047000055
:1034B000002C0140001000400004004090F83C3017
:1034C0000022012B0AD0012380F83C3041B10429AD
:1034D00009D008290AD00C290DD10AE00220704732
:1034E00001684A6B07E001688A6B04E00168CA6BF7
:1034F00001E001680A6C002180F83C10104670471A
:10350000704710B504460068416994F83920C1F34A
:10351000C011212A0BD151B1416921F080014161D3
:10352000206B08B1FDF794FC204601F0D6FD206821
:10353000416994F83A20C1F38011222A0BD151B18C
:10354000416921F040014161606B08B1FDF780FCE9
:10355000204601F0B4FD002010BD704710F8391F5F
:10356000407808437047000070B502680446106850
:10357000D168536910F00F0F50D003F0010501F42A
:10358000907635435DD0C20705D0CA0503D5E26BFE
:1035900042F00102E263420705D5DA0703D0E26B8D
:1035A00042F00202E263820705D5DA0703D0E26B3C
:1035B00042F00402E263020705D5DA0703D0E26BAA
:1035C00042F00802E263E26B002A33D0800604D5A1
:1035D000880602D5204601F089FD20684069E16B2C
:1035E000C0F38010090700D428B3204601F067FD1E
:1035F0002068416949061AD5416921F040014161BD
:10360000606BA0B11B494163606BFDF739FC00287A
:1036100010D0606B416BBDE870400847830610D541
:103620008B060ED52046BDE8704001F05FBD2046F8
:10363000FFF793FF70BD2046FFF78FFF0020E06388
:1036400070BD030606D50B0604D52046BDE87040C4
:1036500001F050BE4006F3D54806F1D5D1682046AA
:1036600021F04001D160202184F8391000F01EFAC9
:1036700070BD0000E74F000870B5040004D094F856
:103680003900002510B106E0012070BD84F83850E3
:10369000204600F023F8242084F839002068C1680F
:1036A00021F40051C160204601F06CFD20680169E1
:1036B00021F4904101612068416921F02A014161B2
:1036C0002068C16841F40051C160E563202084F89E
:1036D000390084F83A00002070BD00002DE9F04365
:1036E000044603685548DFF850C10221032206153D
:1036F0000025802785B04FF01008634549D18369C4
:1037000043F4804383618069DFF8349100F48040A2
:1037100004900802CDE90001039269464846FDF78E
:1037200077FECDE90065694648460295FDF770FED3
:10373000454E4448C6E90005C6E902573561756142
:10374000B5613046F561FDF757FD18B190213FA0F6
:1037500003F02CF8666374623B4E3A4844361438E2
:10376000C6E9025735617561B561F561C6E90008C2
:103770003046FDF741FD18B1A02134A003F016F842
:1037800026630022062125207462FEF7B3F8252067
:103790004DE0DFF8C8C063454BD1C36943F48023D3
:1037A000C361C069CDE9006100F48020CDE9032048
:1037B0002B4E69463046FDF72BFEF014CDE900058F
:1037C000694630460295FDF723FE1F4E1D48883698
:1037D0002838C6E90005C6E9025735617561B5614B
:1037E0003046F561FDF708FD18B1CE2117A002F0B3
:1037F000DDFF66637462144E1248CC363C38C6E96D
:10380000025735617561B561F561C6E9000830465A
:10381000FDF7F2FC18B1DE210CA002F0C7FF266311
:103820000022062127207462FEF764F82720FEF7A5
:1038300055F805B0BDE8F0830038014000100240A3
:103840000008014058000240B40D00202E2E2F53D6
:1038500072632F75736172742E630000004800401C
:10386000000C0140F8B5044690F83A0020283CD1FD
:10387000C1B3BAB394F83800012836D0012084F8D7
:103880003800A162A2850025E563222084F83A0071
:10389000636B17489862636B1648D862636B16486F
:1038A0001863606B134645630846666B21680246E1
:1038B0003046091DFDF7E2FC20680168416800916F
:1038C00084F83850C16841F48071C1602068416952
:1038D00041F0010141612068416941F040014161CD
:1038E0000020F8BDFFE70120FBE70220F9E7000018
:1038F000415000087D500008F74F000810B50068DF
:103900001849884201D1002003E01749884225D197
:10391000012000EB001202EB00221448802100EB92
:103920008204D4F8440404EB8000C0F82014D4F8D6
:103930004404072813D0401CC4F8440400EBC01012
:10394000211880221831E068FFF78CFF04F58860A9
:1039500003C8814202D10120C4F8480410BD0020F0
:10396000EAE700000038014000480040C0010020A4
:1039700070472DE9F843044690F839001F46164673
:103980000D46202850D1A5B19EB194F838000128E9
:103990004AD0012084F838004FF00008C4F83C8079
:1039A000212084F83900FDF735FEA6848146E6849F
:1039B00026E00120BDE8F883E08C401EE084A0688A
:1039C0004B46B0F5805F4FF000024FF0800120467B
:1039D000009703D001F0BFFCE8B90DE001F0BBFC9B
:1039E000C8B928882168C0F308004860206908B178
:1039F0006D1C05E0AD1C03E0216815F8010B486063
:103A0000E08C0028D8D14B46002240212046009768
:103A100001F0A1FC08B10320CCE7202084F8390094
:103A200084F838800020C5E70220C3E770B504465B
:103A300090F83900202830D169B362B394F8380087
:103A400001282AD0012084F838002162A284E2846F
:103A50000025E563212084F83900236B1048986223
:103A6000236B1048D862236B0F481863206B1346F2
:103A700045632668206B321DFDF700FC21686FF05E
:103A80004000086084F838502068416941F08001A6
:103A90004161002070BD012070BD022070BD00009A
:103AA00087500008B5500008F74F0008704770476E
:103AB000FEE7000070B5294C27480025E060284843
:103AC0002061C4F84054C4F844542648C4F848540B
:103AD000606184F84C54284621180D7604EB80016F
:103AE000401CC1F820540828F6DB1C4980221831FC
:103AF000E068FFF7B7FE1C48C4F850041B48C4F840
:103B00005404C4F88458C4F888581948C4F88C5828
:103B1000C4F8580484F890580020211881F8DD5426
:103B200004EB8001401CC1F864580828F5DB8022B2
:103B30001049D4F85004FFF795FEE0680068C168AA
:103B400041F01001C160D4F850040068C16841F030
:103B50001001C16070BD0000340D0020C0010020C4
:103B6000B40D0020F80D0020740D00203C0E002044
:103B7000800E00201C0600202DE9F04100252F4674
:103B80001E4E26E0B5B10020D4F8401400EB00131F
:103B900004EB810203EB0020B2F8202401EBC111F9
:103BA00006EB8000214492B2C0681831FFF73EFF57
:103BB00078B901E00120E7E7D4F84004072805D0F0
:103BC000401CC4F84004C4F848740CE0C4F84074C5
:103BD000F9E705EB051000EB052006EB8004D4F8AF
:103BE00048040128CED004F5886003C88842C9D1B2
:103BF0006D1C022DEDDBBDE8F0810000C00100204E
:103C00007FB51248FEF768FC114D00222821284696
:103C1000FDF7FBFC0F4E00220E213046FDF7F5FCB0
:103C20000E213046FDF774FB00242820CDE9000466
:103C3000694628460294FDF7EBFB0E20CDE900040F
:103C4000694630460294FDF7E3FB7FBDDC0B0020A4
:103C5000000C014000100140020010B51C484FF458
:103C600000530DD0012A1ED0022A30D139B30129C8
:103C700027D002292BD10121BDE81040FDF7C1BC9E
:103C800051B1012923D1002219460446FDF7BDFC9C
:103C900000220121204616E0012219460446FDF7C4
:103CA000B4FC0122F5E729B1012905D002290ED182
:103CB0001946E1E7012200E00022194603E0012253
:103CC00000E000220121BDE81040FDF79EBC10BDC0
:103CD0000010014070B5144CB4F908004042FCF7E4
:103CE000C7FC2169FCF7FEFAA062B4F90400FCF7F6
:103CF000C8FC06460D46B4F90000FCF7C2FC32468B
:103D00002B4602F0EBFE0022084BFCF7D0FB084AE2
:103D1000084BFCF73EFCFCF7F1FC6063A16ABDE8D0
:103D20007040FCF775BE0000540A00200080664019
:103D300044174154FB2109401CB50446694600F074
:103D40005FF8641CE0B201A900F05AF89DF8040085
:103D50009DF8001000EB012000B21CBD10B53B2007
:103D6000FFF7EAFF054C20803F20FFF7E5FFA0802A
:103D70004520FFF7E1FF208110BD0000540A00201C
:103D800010B550211C48FCF718FA00216B2000F0F8
:103D900063F800216C2000F05FF806211A2000F083
:103DA0005BF83021372000F057F84D21242000F037
:103DB00053F810216A2000F04FF80121672000F02D
:103DC0004BF88121272000F047F80721192000F047
:103DD00043F808211B2000F03FF808211C2000F0C8
:103DE0003BF8054975201C3100F00AF80248032110
:103DF00081810249016110BD540A00200000834204
:103E00002DE9F84340F08000114E88468DF80000FF
:103E1000002210213046FDF7F8FB0E4D4FF0FF3722
:103E20003B46012269462868FEF762FC040006D181
:103E30003B46012241462868FEF7B2FB04460122B8
:103E400010213046FDF7E1FB2046BDE8F883000075
:103E5000000801401000002038B50D4D8DF800001D
:103E60008DF80110002210212846FDF7CEFB0948ED
:103E70004FF0FF33022269460068FEF739FC044622
:103E8000012210212846FDF7C0FB204638BD000066
:103E900000080140100000203EB5124800241049DF
:103EA0008460C46044610160012505614FF46021B4
:103EB0004460C161FCF71CFF18B14D210AA002F05B
:103EC00075FC0F20CDE90005694602940548FCF712
:103ED00091FE002803D0572103A002F067FC3EBDED
:103EE00000240140000B00202E2E2F5372632F61FF
:103EF00064632E6300000000154808B5416941F075
:103F0000010141614069002200F00100009011466A
:103F10000C20FDF7EFFC0C20FDF7E0FC0022114621
:103F20000D20FDF7E7FC0D20FDF7D8FC002211461F
:103F30000E20FDF7DFFC0E20FDF7D0FC002211461D
:103F40000F20FDF7D7FCBDE808400F20FDF7C6BCE9
:103F5000001002402DE9F047384886B0816941F0F1
:103F600010018161816901F010010491816941F0C2
:103F700020018161816901F020010491816941F092
:103F800004018161816901F004010491816941F0BA
:103F9000080181618069DFF8A88000F0080042F222
:103FA000CF040490002221464046FDF72EFBDFF8A7
:103FB0009490012210214846FDF727FBDFF888A0E6
:103FC0004FF20407002239465046FDF71EFB00223F
:103FD0004FF480714846FDF718FB0125CDE90045F7
:103FE00000240226CDE9024669464046FDF710FA54
:103FF0004FF48870CDE90005CDE902466946484690
:10400000FDF706FA1020CDE9000469464046029407
:10401000FDF7FEF900970396CDE901546946504635
:10402000FDF7F6F94FF44070CDE9000469465046BB
:104030000294FDF7EDF906B0BDE8F08700100240EC
:104040000010014000080140000C01400E4810B56E
:104050000C4901600D49416000214FF480428160AC
:10406000C0E9031241618161C1610162FDF7D8FAC3
:10407000002805D0BDE810404C2105A002F096BBF9
:1040800010BD000000540040300B0020A08601004D
:104090002E2E2F5372632F6932632E6300000000AF
:1040A000114810B50F4901604FF482714160002141
:1040B00002228160C0E90312012242615202826140
:1040C0000822C0E90721416281620A21C162FEF72C
:1040D000C1F9002805D0BDE81040502103A002F02E
:1040E00065BB10BD00300140840B00202E2E2F53E5
:1040F00072632F7370692E6300000000114810B5C1
:104100000F4901604FF4827141604FF400418160BA
:104110000021C1604FF400720161C0E90512C16164
:104120000162416281620A21C162FEF793F90028AF
:1041300005D0BDE81040662103A002F037BB10BDDA
:10414000003C0040DC0B00202E2E2F5372632F7397
:1041500070692E630000000010B518488CB04FF055
:104160008041016003210024C0E901144FF6FF7271
:10417000C0E90324846100910120CDE901400F21B1
:10418000CDE90341CDE90540CDE9074169460B483A
:10419000FEF7BCFD18B1572109A002F007FB0994F6
:1041A00009A906480A94FEF797FC002803D05E216F
:1041B00003A002F0FBFA0CB010BD0000340C00208C
:1041C0002E2E2F5372632F74696D2E630000000032
:1041D00010B528488AB02649016047210024C0E96B
:1041E000011449F63F41C0E903148461FEF79CFCC9
:1041F00018B1712120A002F0D9FA4FF48050049038
:1042000004A91C48FEF709FD18B177211AA002F095
:10421000CDFA1848FEF75DFF18B17C2116A002F018
:10422000C5FA089408A913480994FEF755FC18B17B
:10423000832111A002F0BAFA0120CDE900400294D6
:10424000082269460B480394FEF7B6FE18B18C218C
:1042500009A002F0ABFA0C2269460648FEF7ACFE54
:10426000002803D0912104A002F0A0FA0AB010BDEA
:1042700000040040740C00202E2E2F5372632F7404
:10428000696D2E63000000001CB510480E49002423
:10429000016041F61F41C0E9011463218461C160DE
:1042A000FEF742FC18B1A12109A002F07FFA0094A8
:1042B000694606480194FEF70FFC002803D0A821A8
:1042C00003A002F073FA1CBD00100040B40C0020E3
:1042D0002E2E2F5372632F74696D2E630000000021
:1042E00010B52B4890B02949016005210024C0E990
:1042F000011440F2E731C0E903148021C0E905410F
:10430000FFF733F818B1BC2122A002F04FFA0E9447
:104310000EA91F480F94FEF7DFFB18B1C3211DA0A3
:1043200002F044FA6020CDE900040294039404945E
:1043300005940822694616480694FEF7AEFF18B1A8
:10434000CF2114A002F032FA0C2269461048FEF781
:10435000A4FF18B1D4210FA002F028FA0794089402
:1043600009944FF400500A94CDE90B4007A908487E
:104370000D94FEF784FB18B1E02106A002F016FAB6
:104380000348FEF775FF10B010BD00000034014077
:10439000F40C00202E2E2F5372632F74696D2E6340
:1043A000000000000D4810B50B4901604FF4E131E9
:1043B0004160002181600C22C160C0E9041281616A
:1043C000C161FFF759F9002805D0BDE8104052211E
:1043D00003A002F0EBB910BD00380140340D0020FD
:1043E0002E2E2F5372632F75736172742E6300002B
:1043F0000D4810B50B4901604FF4E13141600021D7
:1044000081600C22C160C0E904128161C161FFF7C3
:1044100033F9002805D0BDE81040652103A002F063
:10442000C5B910BD00480040740D00202E2E2F533A
:1044300072632F75736172742E63000010B50022D1
:104440000849094801F033FA0849074801F031FCEE
:104450000749054801F08CF8BDE81040024801F01A
:1044600075BC000030000020C40E00208801002030
:1044700064000020FEE700002DE9F05F274E4FF0BA
:1044800000090446B16CDFF88CA0DFF88C80484648
:104490000D46FBF79DFE0746062C01DA204900E099
:1044A00020492846FBF7E6FE83463D464146B06A72
:1044B000FBF7E6FE044649462846FBF7E1FE0546C3
:1044C00051465846FBF7DCFE2946FBF781FE2146A4
:1044D000FBF77EFEB0F5000F01DB012500E00025B3
:1044E000FCF7E0F8002800DA404200F5117004B251
:1044F0000D488480A0B235B102F0EEFBA0B2BDE859
:10450000F05F02F057BC02F009FCA0B2BDE8F05F1A
:1045100002F070BC000020416666663F540A00202D
:10452000000070410000C040C40A002070B508219E
:104530000F48FEF775FF0C210D48FEF771FF4FF491
:104540000044002221460B48FDF75FF80A4D002287
:1045500040212846FDF759F8002221460748FDF77B
:1045600054F82846BDE8704000224021FDF74DB8C0
:10457000F40C00200008014000100140000C014034
:1045800070470907090E002806DA00F00F0000F155
:10459000E02080F8141D704700F1E02080F800143E
:1045A00070472DE9FC5F4FF000080446ADF8048029
:1045B000ADF8008048F60F7B4FF002094FF480669B
:1045C00092E1BDF8041011F00F072BD030F827103E
:1045D000ADF80010BDF80010090478D530F8272098
:1045E00040F68F710A4020F8272004EB471595F814
:1045F000320205F50A750028206869D0297830F85C
:10460000212052047DD5B0F8503009EBC101194486
:1046100006EB4101415AC1F309015FEA010A71D079
:10462000EA88D0E0BDF80410C9062AD4018801EA5E
:104630000B010180206804F12805B0F850202B7888
:1046400009EBC301114406EB4101405AC0F30900D4
:104650006064E16B0844E06300212046FDF797F9B0
:1046600094F824000028ABD0A8690028A8D194F8B9
:104670002400216840F08000A1F84C0084F82480D8
:1046800032E1018804F50A75ADF80010BDF800109C
:1046900009051ED5B0F850302978062202EBC10179
:1046A000194406EB4101405A04F22C41C0F30903BE
:1046B000EB61AA88206801F073FF2068018840F64A
:1046C0008F72114001802046FDF763FB0CE1A0E0F2
:1046D00055E0BDF800100904D2D5028840F68F716C
:1046E0000A4002802068B0F850302978062202EB98
:1046F000C101194406EB4101405A83059B0DEB6152
:1047000001E051E063E008D0AA886969206801F0FF
:1047100047FFE96968690844686100212046FDF7A0
:104720003DF92068B0F85010891D06EB41010144A5
:1047300028693E280CD9C0F34F12C00601D1521E81
:1047400092B24FF6FF7000EA822040F4004009E088
:10475000C0F34F02C00701D0521C92B24FF6FF7057
:1047600000EA82200860216808884BF68F721040AA
:1047700080F4405048F2800210430880B4E0B0F862
:1047800050202B78062101EBC301114406EB4101B7
:10479000415AC1F309015FEA010A24D0AA885346AD
:1047A000696901F0FDFE1EE0B0F85020062303EB1E
:1047B000C101114406EB4101415AC1F309015FEA0D
:1047C000010A04D02A895346696901F0E9FE297873
:1047D000206830F8213048F68F72134048F2C0024A
:1047E000134320F82130E96901EB0A00E8616969A7
:1047F00001EB0A026A61AB6913B12869504504D91B
:1048000029782046FDF7CAF803E029782046FDF70D
:104810003BF9BDF80000000666D5206804EB47159B
:1048200030F8271001EA0B0120F8271095F8320024
:1048300028350028206812D0297830F82120B0F8D7
:10484000503052061ED509EBC101194406EB410157
:10485000405A83059B0DEB6124D0EA881EE0B0F836
:1048600050302A7809EBC201194406EB4101405A45
:1048700083059B0DEB6121D0AA886969206801F04E
:10488000A6FE1BE0062202EBC101194406EB410122
:10489000405A83059B0DEB6104D02A896969206821
:1048A00001F095FE2978206830F8212048F68F73B2
:1048B0001A404CF280031A4320F821202068B0F8F7
:1048C00050202B7809EBC301114406EB4101405AFB
:1048D000C0F30900E86169690A186A612978AB695F
:1048E000204663B1FDF712F92068B0F84410ADF826
:1048F000041009043FF565AE0020BDE8FC9FFDF7FC
:1049000046F8F1E77047000010B54FF480710C488D
:10491000FCF772FE00230B49012218B10B704A709C
:10492000002010BD0878012802D14878012804D061
:104930000A703220FCF7DAFCF2E74B70012010BD60
:10494000000C01401C00002010B54FF400710C4811
:10495000FCF752FE00230B49012218B18B70CA707C
:10496000002010BD8878012802D1C878012804D021
:104970008A703220FCF7BAFCF2E7CB70012010BD40
:10498000000C01401C00002038B50B460092044684
:104990000022802100F008F8002804D0606D40F06B
:1049A00020006065032038BD2DE9F0411D46174603
:1049B0000E460446DDF8188035E0681C33D02DB172
:1049C000FCF728FEA0EB0800A8422CD32068416821
:1049D00021F0E00141606068B0F5827F0BD1A068F2
:1049E000B0F5004F02D0B0F5806F04D120680168A7
:1049F00021F040010160A06AB0F5005F0AD1206893
:104A000001684DF6FF72114001602068016841F4B1
:104A100000510160012084F85100002084F850000A
:104A20000320BDE8F0812068806836EA000004D0E9
:104A30000020B842C1D10020F3E70120F9E7704718
:104A400010B5B8B1012827D0022839D10121084674
:104A5000FFF702F901210220FFF7FEF8FFF766FDDC
:104A60001848FEF79DFCFFF7CBF8BDE8104016484C
:104A7000FEF7B2B800210120FFF7EEF80121022075
:104A8000FFF7EAF80F48FEF799FC0F48FEF7A4F885
:104A9000BDE81040FFF7B4B801210846FFF7DCF885
:104AA00000210220FFF7D8F80748FEF7A1F8FFF72A
:104AB0003DFD0448FEF774FCBDE8104002F0CEB89E
:104AC00010BD0000F40C0020B40C002004490022AA
:104AD00010B10A810A827047CA80CA8170470000FB
:104AE000C40A002030B58A42039D19DB541A9D4246
:104AF00016DB65108B4203DD5C1AAC4205DC02E07C
:104B0000CC1AAC4201DD002300E00123551A2AB281
:104B100006496D102DB220B10A818B810D83CC82A4
:104B200030BDCA804B818D824C8230BDC40A0020CA
:104B3000FDF79FBF30B595B001210804CDE9001005
:104B40000024029402250491CDE907504FF4E010AF
:104B500009906846FDF7FCFA00B1FEE70F20CDE9A9
:104B60000A054FF48060CDE90C4002210AA80E949A
:104B7000FDF7C8F900B1FEE712200F904FF4004096
:104B8000119014940FA8FDF747F900B1FEE7FDF767
:104B900083FA4FF47A71B0FBF1F0FDF756FF042071
:104BA000FDF746FF00221146501EFCF7A3FE15B08C
:104BB00030BD00000D48016841F00101016041680D
:104BC0000B4A1140416001680A4A114001600168C6
:104BD00021F480210160416821F4FE0141604FF41D
:104BE0001F0181600449C003086070470010024043
:104BF0000000FFF8FFFFF6FE08ED00E010B51E4CC8
:104C00000021A068632804D3A160E068401CE06034
:104C100009E08207226901D1521C2261632A00D374
:104C20002161401CA060FBF7D1FFFFF797F8FFF769
:104C300051F8E068282801D2206900E06420FFF7DD
:104C40001BFC606840B1022814D10C48406BB0F5E1
:104C5000000F06DB012108E0A06863280AD10221C9
:104C600003E010F1FF4F05D30021BDE81040022002
:104C7000FEF7F2BF10BD00001C000020540A002007
:104C80000148FEF742BA0000382100200148FEF733
:104C90003CBA0000340C00200148FEF736BA000090
:104CA000740C00200148FEF730BA0000B40C00205C
:104CB000F0B502681C4B1D4D1D4E1E4F1E4C4FF093
:104CC000804C984209D0A04207D0604505D0A84248
:104CD00003D0B04201D0B84204D122F0700E4A682D
:104CE00042EA0E02984209D0A04207D0604505D0A2
:104CF000A84203D0B04201D0B84203D122F440759B
:104D0000CA682A4322F080054A692A4302608A68F9
:104D1000C2620A688262984201D0A04201D1096948
:104D2000016301214161F0BD002C014000040040FD
:104D300000080040000C00400034014010B5012381
:104D4000046A8B409C430462036A8A4013430362F3
:104D500010BD10B5846842EA032224F47F440A435C
:104D60002243826010BD826822F070020A4342F042
:104D70000701816070470000F0B5026A22F001026D
:104D80000262036A42688469124E24F073050C685B
:104D90002C4323F002058B682B430D4DA84201D014
:104DA000B04205D123F00807CB683B4323F004034E
:104DB000A84201D0B04205D14D6922F4407215439A
:104DC0008A692A4342608461496841630362F0BD95
:104DD000002C014000340140F0B5026A22F01002BC
:104DE0000262026A436884690D6824F4E64444EA76
:104DF00005248D6822F0200242EA05120F4D104E64
:104E0000A84201D0B04206D1CF6822F0800242EA27
:104E1000071222F04002A84201D0B04207D14D69EA
:104E200023F4406343EA85038D6943EA85034360C5
:104E30008461496881630262F0BD0000002C01407A
:104E400000340140F0B5026A22F480720262026A04
:104E50004368C46922F4007224F073050C68124E92
:104E60002C438D6842EA05220E4DA84201D0B04283
:104E700006D1CF6822F4006242EA072222F480625F
:104E8000A84201D0B04207D14D6923F4405343EA10
:104E900005138D6943EA05134360C4614968C16322
:104EA0000262F0BD002C01400034014030B5026ABE
:104EB00022F480520262046A4268C3690D6823F4D6
:104EC000E64343EA05238D6824F4005444EA05349C
:104ED000084DA84202D0084DA84204D14D6922F4E1
:104EE000804242EA85124260C361496801640462FB
:104EF00030BD0000002C01400034014010B5036AB1
:104F0000046A24F001040462846924F0F00444EA91
:104F1000021423F00A020A438461026210BD0000F9
:104F200070B5046A24F0010404628469056A124EB3
:104F3000B0420ED0114EB0420BD0B0F1804F08D02D
:104F40000F4EB04205D00F4EB04202D00E4EB042CE
:104F500003D124F00304144301E044F001041A07D0
:104F600024F0F00444EA126225F00A0301F00A0179
:104F700019438261016270BD002C01400034014080
:104F80000004004000080040000C004010B5036A17
:104F900023F0100303628369046A23F4704343EA35
:104FA000023224F0A00343EA01118261016210BDC4
:104FB00030B5046A24F0100404628469056A24F49C
:104FC000407444EA022222F470444FF6FF7202EA6F
:104FD00003322243A02425F0A00304EA011119435F
:104FE0008261016230BD10B5406A0021C185C18473
:104FF000FEF7B3FA10BD70B5446A2068406994F8B2
:105000003910C0F3C0100025212904D118B1E5845E
:10501000204600F062F82068406994F83A10C0F326
:105020008010222904D118B1E585204600F047F808
:10503000E06B40F01000E0632046FEF78EFA70BD92
:1050400010B50146406A09680968890613D4002131
:10505000C1850168CA6822F48072CA6001684A6921
:1050600022F001024A6101684A6922F040024A6165
:10507000202180F83A10FEF741FC10BD10B5406ABF
:10508000FEF776FC10BD10B50146406A0968096854
:1050900089060CD40021C18401684A6922F080028B
:1050A0004A610068C16841F04001C16010BDFEF76F
:1050B000FDFC10BD10B5406AFEF7F9FC10BD01689B
:1050C000CA6822F49072CA6001684A6922F001023B
:1050D0004A61202180F83A1070470168CA6822F0BE
:1050E000C002CA60202180F83910704710B590F8CE
:1050F0003A10222901D0022010BD8168B1F5805FED
:1051000011D00169002901681FD0496801F07F03AF
:10511000816A4A1C82620B70C18D491E0904090C08
:10512000C18518D02BE00269816A002A02685268A2
:1051300005D0D2B20A80816A491C8162ECE7C2F3D1
:1051400008020A80816A891CF7E74A68816A4B1C59
:1051500083620A70E0E70168CA6822F02002CA6030
:105160000168CA6822F48072CA6001684A6922F044
:1051700001024A61202180F83A10FEF7BFFB0020AF
:1051800010BD00002DE9F041044600680169E268A5
:1051900021F44051114301612169A068084361690C
:1051A00008432168CA6841F20C639A430243CA600B
:1051B00020684169A26921F44071114341614C4961
:1051C00020686425322688423CD1FCF77BFF00EB47
:1051D000C00101EB001061688900B0FBF1F7FCF73A
:1051E00071FF00EBC00101EB00106168B04689005F
:1051F000B0FBF1F0B0FBF5F06FF01801484307EB9E
:10520000800106EB0110B0FBF5F000F0F006FCF7B2
:1052100059FF00EBC00101EB001061688900B0FB91
:10522000F1F0B0FBF5F006EB0016FCF74BFF00EBDE
:10523000C00101EB001061688900B0FBF1F7FCF7D9
:1052400041FF3BE0FCF72EFF00EBC00101EB00103B
:1052500061688900B0FBF1F7FCF724FF00EBC001A7
:1052600001EB00106168B0468900B0FBF1F0B0FBC3
:10527000F5F06FF01801484307EB800106EB0110D1
:10528000B0FBF5F000F0F006FCF70CFF00EBC001FE
:1052900001EB001061688900B0FBF1F0B0FBF5F0A4
:1052A00006EB0016FCF7FEFE00EBC00101EB001060
:1052B00061688900B0FBF1F7FCF7F4FE00EBC00178
:1052C00001EB001061688900B0FBF1F0B0FBF5F074
:1052D0006FF01801484307EB800108EB0110B0FBA9
:1052E000F5F0216800F00F0030448860BDE8F081DF
:1052F0000038014090F83910212901D00220704770
:105300008168B1F5805F016A0BD04A1C02620268B5
:1053100009785160C18C491E0904090CC1840ED062
:1053200017E009880268C1F308015160016900298A
:10533000016A02D0491C0162ECE7891CFBE70168A5
:10534000CA6822F08002CA600068C16841F040016A
:10535000C160002070472DE9F041984617460E467F
:105360000446069D1DE0681C1BD02DB1FCF752F9C8
:10537000A0EB0800A84214D92068C16821F4D071BC
:10538000C1602068416921F001014161202084F859
:10539000390084F83A00002084F838000320BDE882
:1053A000F0812068006836EA000004D00020B8428E
:1053B000D9D00020F3E70120F9E7000010B5044838
:1053C00001F05AF9BDE810400148FEF7CDB80000E1
:1053D000340D002010B5044801F04EF9BDE810402E
:1053E0000148FEF7C1B80000740D0020D0F8180283
:1053F00020B10021C0F814120846704702207047FF
:1054000070B50546D0F8184200F010FBC4F80C0245
:10541000D5F8180248B1D5F81C12D4F80402CA68AD
:1054200004F503719047002070BD022070BD70B577
:1054300004460025812100F05FFA0121204600F09A
:105440005BFA8221204600F057FAD4F8180250B1D6
:10545000D4F81C0204F5067440688047206800F008
:105460007BFD00202060284670BD10B5D0E9864144
:1054700059B194F80002FF2807D08B6894F80122F4
:1054800021469847FF2084F80002002010BD00004C
:105490000A21018000487047B000002043210180AC
:1054A00000487047000100204321018000487047F8
:1054B000BC000020432101800048704744010020C7
:1054C0002DE9F0410446007C00254FF4007670B3CE
:1054D000402302228121204600F00AFB40230222C1
:1054E0000121204600F004FB0823032282212046EC
:1054F00000F0FEFA4FF4077000F030FDC4F8180217
:10550000F0B10746D4F81C02006880470020C7F8B5
:105510001402C7F81802207CD7F8042290B1402367
:105520000121204600F0F7FA2846BDE8F081FFE7A8
:10553000334602228121204600F0DAFA3346CEE7D4
:105540000125F1E73346EBE710B5D0F8181269B141
:10555000027C002AD1F8042205D04023012100F06A
:10556000DAFA002010BD4FF40073F7E7022010BDF7
:1055700002460220002902D00020C2F81C12704707
:10558000D0F81802C0F8041200207047D0F81802B2
:10559000C0F81022C0F808120020704770B5064607
:1055A000D0F8185208780C4610F0600121D020295C
:1055B00027D1E288AAB10006607807D5D6F81C1278
:1055C0008B6829469847E288294617E085F800024B
:1055D000A07985F80102E2882946304600F038F8C3
:1055E0000FE0D6F81C12607800228B68214698479D
:1055F00007E060780A2804D103490122304600F010
:1056000041F8002070BD0000AC00002010B5D0F8BB
:10561000142252689047002010BD134610B50A4668
:10562000002100F078FA002010BD134610B50A469C
:10563000002100F01AFB002010BD10B504468021A7
:1056400000F0EAFA2046BDE81040002100F0E4BA7C
:1056500010B50323C0F80821C0F8F431C0F80C21BC
:1056600013460A46002100F056FA002010BD10B57E
:1056700005210023C0F8F4111A46194600F04BFA30
:10568000002010BD10B502238261C0F8F431C26160
:1056900013460A46002100F0E8FA002010BD10B5BC
:1056A00004210023C0F8F4111A46194600F0DDFA6F
:1056B000002010BD10B50A46024903A000F0D4F83E
:1056C000004810BD6817002043444320436F6E66B6
:1056D00069670000122008800048704750000020D1
:1056E00010B50A46024903A000F0BEF8004810BDFC
:1056F0006817002043444320496E746572666163F5
:105700006500000004200880004870474C0000201D
:1057100010B50A46024903A000F0A6F8004810BDE3
:105720006817002053544D6963726F656C6563742C
:10573000726F6E696373000010B50A46024903A0D8
:1057400000F092F8004810BD6817002053544D3304
:1057500032205669727475616C20436F6D506F72A0
:105760007400000010B50A46024903A000F07CF85E
:10577000004810BD681700203030303030303030F5
:105780003030314100000000F8B5044648880D462D
:10579000010A08294BD2DFE801F04A0409174A4AF6
:1057A0004048D4F81012207C0A6832E0207C02269F
:1057B0000028D4F8140205D0C16A6846884701461B
:1057C000467041E0816AF8E7C0B206282FD2DFE8D0
:1057D00000F003080D12171CD4F81012207C4A6840
:1057E00017E0D4F81012207C8A6812E0D4F8101266
:1057F000207CCA680DE0D4F81012207C0A6908E009
:10580000D4F81012207C4A6903E0D4F81012207CEE
:105810008A6969469047014616E0207C38B9D4F879
:105820001402416B68468847F5E7207C20B1294681
:105830002046FFF702FFF8BDD4F81402016B68465A
:105840008847014607204870BDF800000028F2D0C4
:10585000EA88002AEFD0824200D90246ADF8002043
:105860002046FFF70FFFF8BD70B5002300281DD0BC
:105870000446002502E06D1CEDB2641C2678002E63
:10588000F9D1022404EB45041480CC545B1C0322A0
:10589000CA5400245B1C06E0CA545B1CDAB28C5468
:1058A000521CD3B2401C0278002AF5D170BD10B54D
:1058B00080B1D0F8143213B10023C0F8143209B10A
:1058C000C0F81012012180F8FC11027000F0B2F84B
:1058D000002010BD022010BD10B50024D0F8200219
:1058E000FCF784F830B1012801D0022801D002244D
:1058F00000E00124204610BD10B50024D0F820029D
:10590000FCF754F830B1012801D0022801D002245C
:1059100000E00124204610BD2DE9F0411746044661
:1059200041B1D4F8140242698AB394F8FC01032807
:1059300042D043E0D4F8F411002504F11400022908
:1059400033D1D0E902639E4207D9F31A83609AB239
:1059500039462046FFF769FE12E04068B0FBF3F1DC
:1059600003FB1101A1B9984212D3D4F8F81188426F
:105970000ED2002211462046FFF757FEC4F8F85118
:1059800000231A461946204600F0C5F80DE012E043
:10599000D4F81402C16829B194F8FC01032801D19C
:1059A000204688472046FFF762FE94F8000201284F
:1059B00004D184F8005201E0204690470020BDE861
:1059C000F08170B51546044641B1D4F814028269DD
:1059D0003AB394F8FC01032824D025E0D4F8F4115C
:1059E00004F5827003291FD1D0E902218A420BD924
:1059F000531A83600846834200D303469AB229466D
:105A00002046FFF70AFE0FE0D4F81402016929B11D
:105A100094F8FC01032801D1204688472046FFF76F
:105A20003EFE01E020469047002070BDD0F82002E5
:105A3000FCF700B810B520490446C1F85C04C0F872
:105A400020121E4808600820486002208860032059
:105A5000C86000208861C86108620846FCF7F2F857
:105A600020B14FF4977116A000F0A0FE0022D4F8E8
:105A700020021823114604F50874FBF76DFF582324
:105A8000002280212068FBF767FFC02300228121CC
:105A90002068FBF761FF4FF4887300220121206822
:105AA000FBF75AFF4FF48073002282212068FBF736
:105AB00053FF002010BD000008130020005C0040D0
:105AC0002E2E2F5372632F757362645F636F6E6641
:105AD0002E6300000A06D0F8200201F07F0100EBDF
